{"abi":[{"type":"constructor","inputs":[{"name":"name","type":"string","internalType":"string"},{"name":"symbol","type":"string","internalType":"string"},{"name":"baseTokenURI_","type":"string","internalType":"string"}],"stateMutability":"nonpayable"},{"type":"function","name":"approve","inputs":[{"name":"to","type":"address","internalType":"address"},{"name":"tokenId","type":"uint256","internalType":"uint256"}],"outputs":[],"stateMutability":"nonpayable"},{"type":"function","name":"balanceOf","inputs":[{"name":"owner","type":"address","internalType":"address"}],"outputs":[{"name":"","type":"uint256","internalType":"uint256"}],"stateMutability":"view"},{"type":"function","name":"baseTokenURI","inputs":[],"outputs":[{"name":"","type":"string","internalType":"string"}],"stateMutability":"view"},{"type":"function","name":"getApproved","inputs":[{"name":"tokenId","type":"uint256","internalType":"uint256"}],"outputs":[{"name":"","type":"address","internalType":"address"}],"stateMutability":"view"},{"type":"function","name":"isApprovedForAll","inputs":[{"name":"owner","type":"address","internalType":"address"},{"name":"operator","type":"address","internalType":"address"}],"outputs":[{"name":"","type":"bool","internalType":"bool"}],"stateMutability":"view"},{"type":"function","name":"mintTo","inputs":[{"name":"recipient","type":"address","internalType":"address"}],"outputs":[],"stateMutability":"nonpayable"},{"type":"function","name":"name","inputs":[],"outputs":[{"name":"","type":"string","internalType":"string"}],"stateMutability":"view"},{"type":"function","name":"nextTokenId","inputs":[],"outputs":[{"name":"","type":"uint256","internalType":"uint256"}],"stateMutability":"view"},{"type":"function","name":"owner","inputs":[],"outputs":[{"name":"","type":"address","internalType":"address"}],"stateMutability":"view"},{"type":"function","name":"ownerOf","inputs":[{"name":"tokenId","type":"uint256","internalType":"uint256"}],"outputs":[{"name":"","type":"address","internalType":"address"}],"stateMutability":"view"},{"type":"function","name":"renounceOwnership","inputs":[],"outputs":[],"stateMutability":"nonpayable"},{"type":"function","name":"safeTransferFrom","inputs":[{"name":"from","type":"address","internalType":"address"},{"name":"to","type":"address","internalType":"address"},{"name":"tokenId","type":"uint256","internalType":"uint256"}],"outputs":[],"stateMutability":"nonpayable"},{"type":"function","name":"safeTransferFrom","inputs":[{"name":"from","type":"address","internalType":"address"},{"name":"to","type":"address","internalType":"address"},{"name":"tokenId","type":"uint256","internalType":"uint256"},{"name":"data","type":"bytes","internalType":"bytes"}],"outputs":[],"stateMutability":"nonpayable"},{"type":"function","name":"setApprovalForAll","inputs":[{"name":"operator","type":"address","internalType":"address"},{"name":"approved","type":"bool","internalType":"bool"}],"outputs":[],"stateMutability":"nonpayable"},{"type":"function","name":"supportsInterface","inputs":[{"name":"interfaceId","type":"bytes4","internalType":"bytes4"}],"outputs":[{"name":"","type":"bool","internalType":"bool"}],"stateMutability":"view"},{"type":"function","name":"symbol","inputs":[],"outputs":[{"name":"","type":"string","internalType":"string"}],"stateMutability":"view"},{"type":"function","name":"tokenURI","inputs":[{"name":"tokenId","type":"uint256","internalType":"uint256"}],"outputs":[{"name":"","type":"string","internalType":"string"}],"stateMutability":"view"},{"type":"function","name":"transferFrom","inputs":[{"name":"from","type":"address","internalType":"address"},{"name":"to","type":"address","internalType":"address"},{"name":"tokenId","type":"uint256","internalType":"uint256"}],"outputs":[],"stateMutability":"nonpayable"},{"type":"function","name":"transferOwnership","inputs":[{"name":"newOwner","type":"address","internalType":"address"}],"outputs":[],"stateMutability":"nonpayable"},{"type":"event","name":"Approval","inputs":[{"name":"owner","type":"address","indexed":true,"internalType":"address"},{"name":"approved","type":"address","indexed":true,"internalType":"address"},{"name":"tokenId","type":"uint256","indexed":true,"internalType":"uint256"}],"anonymous":false},{"type":"event","name":"ApprovalForAll","inputs":[{"name":"owner","type":"address","indexed":true,"internalType":"address"},{"name":"operator","type":"address","indexed":true,"internalType":"address"},{"name":"approved","type":"bool","indexed":false,"internalType":"bool"}],"anonymous":false},{"type":"event","name":"OwnershipTransferred","inputs":[{"name":"previousOwner","type":"address","indexed":true,"internalType":"address"},{"name":"newOwner","type":"address","indexed":true,"internalType":"address"}],"anonymous":false},{"type":"event","name":"Transfer","inputs":[{"name":"from","type":"address","indexed":true,"internalType":"address"},{"name":"to","type":"address","indexed":true,"internalType":"address"},{"name":"tokenId","type":"uint256","indexed":true,"internalType":"uint256"}],"anonymous":false},{"type":"error","name":"ERC721IncorrectOwner","inputs":[{"name":"sender","type":"address","internalType":"address"},{"name":"tokenId","type":"uint256","internalType":"uint256"},{"name":"owner","type":"address","internalType":"address"}]},{"type":"error","name":"ERC721InsufficientApproval","inputs":[{"name":"operator","type":"address","internalType":"address"},{"name":"tokenId","type":"uint256","internalType":"uint256"}]},{"type":"error","name":"ERC721InvalidApprover","inputs":[{"name":"approver","type":"address","internalType":"address"}]},{"type":"error","name":"ERC721InvalidOperator","inputs":[{"name":"operator","type":"address","internalType":"address"}]},{"type":"error","name":"ERC721InvalidOwner","inputs":[{"name":"owner","type":"address","internalType":"address"}]},{"type":"error","name":"ERC721InvalidReceiver","inputs":[{"name":"receiver","type":"address","internalType":"address"}]},{"type":"error","name":"ERC721InvalidSender","inputs":[{"name":"sender","type":"address","internalType":"address"}]},{"type":"error","name":"ERC721NonexistentToken","inputs":[{"name":"tokenId","type":"uint256","internalType":"uint256"}]},{"type":"error","name":"OwnableInvalidOwner","inputs":[{"name":"owner","type":"address","internalType":"address"}]},{"type":"error","name":"OwnableUnauthorizedAccount","inputs":[{"name":"account","type":"address","internalType":"address"}]}],"bytecode":{"object":"0x608060405234801561001057600080fd5b5060405161152f38038061152f83398101604081905261002f916101a6565b338383600061003e83826102c4565b50600161004b82826102c4565b5050506001600160a01b03811661007c57604051631e4fbdf760e01b81526000600482015260240160405180910390fd5b6100858161009b565b50600861009282826102c4565b50505050610382565b600680546001600160a01b038381166001600160a01b0319831681179093556040519116919082907f8be0079c531659141344cd1fd0a4f28419497f9722a3daafe3b4186f6b6457e090600090a35050565b634e487b7160e01b600052604160045260246000fd5b600082601f83011261011457600080fd5b81516001600160401b0381111561012d5761012d6100ed565b604051601f8201601f19908116603f011681016001600160401b038111828210171561015b5761015b6100ed565b60405281815283820160200185101561017357600080fd5b60005b8281101561019257602081860181015183830182015201610176565b506000918101602001919091529392505050565b6000806000606084860312156101bb57600080fd5b83516001600160401b038111156101d157600080fd5b6101dd86828701610103565b602086015190945090506001600160401b038111156101fb57600080fd5b61020786828701610103565b604086015190935090506001600160401b0381111561022557600080fd5b61023186828701610103565b9150509250925092565b600181811c9082168061024f57607f821691505b60208210810361026f57634e487b7160e01b600052602260045260246000fd5b50919050565b601f8211156102bf57806000526020600020601f840160051c8101602085101561029c5750805b601f840160051c820191505b818110156102bc57600081556001016102a8565b50505b505050565b81516001600160401b038111156102dd576102dd6100ed565b6102f1816102eb845461023b565b84610275565b6020601f821160018114610325576000831561030d5750848201515b600019600385901b1c1916600184901b1784556102bc565b600084815260208120601f198516915b828110156103555787850151825560209485019460019092019101610335565b50848210156103735786840151600019600387901b60f8161c191681555b50505050600190811b01905550565b61119e806103916000396000f3fe608060405234801561001057600080fd5b50600436106101215760003560e01c8063755edd17116100ad578063b88d4fde11610071578063b88d4fde1461024d578063c87b56dd14610260578063d547cfb714610273578063e985e9c51461027b578063f2fde38b1461028e57600080fd5b8063755edd171461020557806375794a3c146102185780638da5cb5b1461022157806395d89b4114610232578063a22cb4651461023a57600080fd5b806323b872dd116100f457806323b872dd146101a357806342842e0e146101b65780636352211e146101c957806370a08231146101dc578063715018a6146101fd57600080fd5b806301ffc9a71461012657806306fdde031461014e578063081812fc14610163578063095ea7b31461018e575b600080fd5b610139610134366004610dde565b6102a1565b60405190151581526020015b60405180910390f35b6101566102f3565b6040516101459190610e4b565b610176610171366004610e5e565b610385565b6040516001600160a01b039091168152602001610145565b6101a161019c366004610e93565b6103ae565b005b6101a16101b1366004610ebd565b6103bd565b6101a16101c4366004610ebd565b61044d565b6101766101d7366004610e5e565b61046d565b6101ef6101ea366004610efa565b610478565b604051908152602001610145565b6101a16104c0565b6101a1610213366004610efa565b6104d4565b6101ef60075481565b6006546001600160a01b0316610176565b6101566104fd565b6101a1610248366004610f15565b61050c565b6101a161025b366004610f67565b610517565b61015661026e366004610e5e565b61052f565b610156610597565b61013961028936600461104b565b610625565b6101a161029c366004610efa565b610653565b60006001600160e01b031982166380ac58cd60e01b14806102d257506001600160e01b03198216635b5e139f60e01b145b806102ed57506301ffc9a760e01b6001600160e01b03198316145b92915050565b6060600080546103029061107e565b80601f016020809104026020016040519081016040528092919081815260200182805461032e9061107e565b801561037b5780601f106103505761010080835404028352916020019161037b565b820191906000526020600020905b81548152906001019060200180831161035e57829003601f168201915b5050505050905090565b600061039082610691565b506000828152600460205260409020546001600160a01b03166102ed565b6103b98282336106ca565b5050565b6001600160a01b0382166103ec57604051633250574960e11b8152600060048201526024015b60405180910390fd5b60006103f98383336106d7565b9050836001600160a01b0316816001600160a01b031614610447576040516364283d7b60e01b81526001600160a01b03808616600483015260248201849052821660448201526064016103e3565b50505050565b61046883838360405180602001604052806000815250610517565b505050565b60006102ed82610691565b60006001600160a01b0382166104a4576040516322718ad960e21b8152600060048201526024016103e3565b506001600160a01b031660009081526003602052604090205490565b6104c86107d0565b6104d260006107fd565b565b6104dc6107d0565b6007805490819060006104ee836110b8565b91905055506103b9828261084f565b6060600180546103029061107e565b6103b93383836108b4565b6105228484846103bd565b6104473385858585610953565b606061053a82610691565b506000610545610a7e565b905060008151116105655760405180602001604052806000815250610590565b8061056f84610a8d565b6040516020016105809291906110df565b6040516020818303038152906040525b9392505050565b600880546105a49061107e565b80601f01602080910402602001604051908101604052809291908181526020018280546105d09061107e565b801561061d5780601f106105f25761010080835404028352916020019161061d565b820191906000526020600020905b81548152906001019060200180831161060057829003601f168201915b505050505081565b6001600160a01b03918216600090815260056020908152604080832093909416825291909152205460ff1690565b61065b6107d0565b6001600160a01b03811661068557604051631e4fbdf760e01b8152600060048201526024016103e3565b61068e816107fd565b50565b6000818152600260205260408120546001600160a01b0316806102ed57604051637e27328960e01b8152600481018490526024016103e3565b6104688383836001610b20565b6000828152600260205260408120546001600160a01b039081169083161561070457610704818486610c26565b6001600160a01b0381161561074257610721600085600080610b20565b6001600160a01b038116600090815260036020526040902080546000190190555b6001600160a01b03851615610771576001600160a01b0385166000908152600360205260409020805460010190555b60008481526002602052604080822080546001600160a01b0319166001600160a01b0389811691821790925591518793918516917fddf252ad1be2c89b69c2b068fc378daa952ba7f163c4a11628f55a4df523b3ef91a4949350505050565b6006546001600160a01b031633146104d25760405163118cdaa760e01b81523360048201526024016103e3565b600680546001600160a01b038381166001600160a01b0319831681179093556040519116919082907f8be0079c531659141344cd1fd0a4f28419497f9722a3daafe3b4186f6b6457e090600090a35050565b6001600160a01b03821661087957604051633250574960e11b8152600060048201526024016103e3565b6000610887838360006106d7565b90506001600160a01b03811615610468576040516339e3563760e11b8152600060048201526024016103e3565b6001600160a01b0382166108e657604051630b61174360e31b81526001600160a01b03831660048201526024016103e3565b6001600160a01b03838116600081815260056020908152604080832094871680845294825291829020805460ff191686151590811790915591519182527f17307eab39ab6107e8899845ad3d59bd9653f200f220920489ca2b5937696c31910160405180910390a3505050565b6001600160a01b0383163b15610a7757604051630a85bd0160e11b81526001600160a01b0384169063150b7a029061099590889088908790879060040161110e565b6020604051808303816000875af19250505080156109d0575060408051601f3d908101601f191682019092526109cd9181019061114b565b60015b610a39573d8080156109fe576040519150601f19603f3d011682016040523d82523d6000602084013e610a03565b606091505b508051600003610a3157604051633250574960e11b81526001600160a01b03851660048201526024016103e3565b805181602001fd5b6001600160e01b03198116630a85bd0160e11b14610a7557604051633250574960e11b81526001600160a01b03851660048201526024016103e3565b505b5050505050565b6060600880546103029061107e565b60606000610a9a83610c8a565b600101905060008167ffffffffffffffff811115610aba57610aba610f51565b6040519080825280601f01601f191660200182016040528015610ae4576020820181803683370190505b5090508181016020015b600019016f181899199a1a9b1b9c1cb0b131b232b360811b600a86061a8153600a8504945084610aee57509392505050565b8080610b3457506001600160a01b03821615155b15610bf6576000610b4484610691565b90506001600160a01b03831615801590610b705750826001600160a01b0316816001600160a01b031614155b8015610b835750610b818184610625565b155b15610bac5760405163a9fbf51f60e01b81526001600160a01b03841660048201526024016103e3565b8115610bf45783856001600160a01b0316826001600160a01b03167f8c5be1e5ebec7d5bd14f71427d1e84f3dd0314c0f7b2291e5b200ac8c7c3b92560405160405180910390a45b505b5050600090815260046020526040902080546001600160a01b0319166001600160a01b0392909216919091179055565b610c31838383610d62565b610468576001600160a01b038316610c5f57604051637e27328960e01b8152600481018290526024016103e3565b60405163177e802f60e01b81526001600160a01b0383166004820152602481018290526044016103e3565b60008072184f03e93ff9f4daa797ed6e38ed64bf6a1f0160401b8310610cc95772184f03e93ff9f4daa797ed6e38ed64bf6a1f0160401b830492506040015b6d04ee2d6d415b85acef81000000008310610cf5576d04ee2d6d415b85acef8100000000830492506020015b662386f26fc100008310610d1357662386f26fc10000830492506010015b6305f5e1008310610d2b576305f5e100830492506008015b6127108310610d3f57612710830492506004015b60648310610d51576064830492506002015b600a83106102ed5760010192915050565b60006001600160a01b03831615801590610dc05750826001600160a01b0316846001600160a01b03161480610d9c5750610d9c8484610625565b80610dc057506000828152600460205260409020546001600160a01b038481169116145b949350505050565b6001600160e01b03198116811461068e57600080fd5b600060208284031215610df057600080fd5b813561059081610dc8565b60005b83811015610e16578181015183820152602001610dfe565b50506000910152565b60008151808452610e37816020860160208601610dfb565b601f01601f19169290920160200192915050565b6020815260006105906020830184610e1f565b600060208284031215610e7057600080fd5b5035919050565b80356001600160a01b0381168114610e8e57600080fd5b919050565b60008060408385031215610ea657600080fd5b610eaf83610e77565b946020939093013593505050565b600080600060608486031215610ed257600080fd5b610edb84610e77565b9250610ee960208501610e77565b929592945050506040919091013590565b600060208284031215610f0c57600080fd5b61059082610e77565b60008060408385031215610f2857600080fd5b610f3183610e77565b915060208301358015158114610f4657600080fd5b809150509250929050565b634e487b7160e01b600052604160045260246000fd5b60008060008060808587031215610f7d57600080fd5b610f8685610e77565b9350610f9460208601610e77565b925060408501359150606085013567ffffffffffffffff811115610fb757600080fd5b8501601f81018713610fc857600080fd5b803567ffffffffffffffff811115610fe257610fe2610f51565b604051601f8201601f19908116603f0116810167ffffffffffffffff8111828210171561101157611011610f51565b60405281815282820160200189101561102957600080fd5b8160208401602083013760006020838301015280935050505092959194509250565b6000806040838503121561105e57600080fd5b61106783610e77565b915061107560208401610e77565b90509250929050565b600181811c9082168061109257607f821691505b6020821081036110b257634e487b7160e01b600052602260045260246000fd5b50919050565b6000600182016110d857634e487b7160e01b600052601160045260246000fd5b5060010190565b600083516110f1818460208801610dfb565b835190830190611105818360208801610dfb565b01949350505050565b6001600160a01b038581168252841660208201526040810183905260806060820181905260009061114190830184610e1f565b9695505050505050565b60006020828403121561115d57600080fd5b815161059081610dc856fea26469706673582212209cd07cb8e5daecf8656cb845221f420cadf96974c52a2701570ce0c83e2ad93f64736f6c634300081a0033","linkReferences":{}},"methodIdentifiers":{"approve(address,uint256)":"095ea7b3","balanceOf(address)":"70a08231","baseTokenURI()":"d547cfb7","getApproved(uint256)":"081812fc","isApprovedForAll(address,address)":"e985e9c5","mintTo(address)":"755edd17","name()":"06fdde03","nextTokenId()":"75794a3c","owner()":"8da5cb5b","ownerOf(uint256)":"6352211e","renounceOwnership()":"715018a6","safeTransferFrom(address,address,uint256)":"42842e0e","safeTransferFrom(address,address,uint256,bytes)":"b88d4fde","setApprovalForAll(address,bool)":"a22cb465","supportsInterface(bytes4)":"01ffc9a7","symbol()":"95d89b41","tokenURI(uint256)":"c87b56dd","transferFrom(address,address,uint256)":"23b872dd","transferOwnership(address)":"f2fde38b"},"id":0}